:020000040800F2
:100000000000032075250008AD220008BB2200086F
:10001000C1220008C7220008CD220008000000000D
:10002000000000000000000000000000D3220008D3
:10003000E122000800000000EF220008FD22000875
:10004000C5250008C5250008C5250008C5250008E8
:10005000C5250008C5250008C5250008C5250008D8
:10006000C5250008C5250008C5250008C5250008C8
:10007000C5250008C5250008C5250008C5250008B8
:10008000C5250008C5250008C5250008C5250008A8
:10009000C5250008C5250008C5250008C525000898
:1000A000C5250008C5250008C5250008C525000888
:1000B000C5250008C5250008C5250008C525000878
:1000C000C5250008C5250008C5250008C525000868
:1000D000C52500080D230008C5250008C525000812
:1000E000C5250008C5250008C5250008C525000848
:1000F000C5250008C5250008C5250008C525000838
:10010000C5250008C5250008C5250008C525000827
:10011000C5250008C5250008C5250008C525000817
:10012000C5250008C5250008C5250008C525000807
:10013000C5250008C5250008C5250008C5250008F7
:10014000C5250008C5250008C5250008C5250008E7
:10015000C5250008C5250008C5250008C5250008D7
:10016000C5250008C5250008C5250008C5250008C7
:10017000C5250008C5250008C525000800000000A9
:10018000C5250008C5250008C5250008C5250008A7
:10019000C5250008C5250008C5250008C525000897
:0C01A000C5250008C5250008C52500087D
:1001B00010B5054C237833B9044B13B10448AFF3A1
:1001C00000800123237010BD70000020000000009B
:1001D0001034000808B5034B1BB103490348AFF3C3
:1001E000008008BD000000007400002010340008EA
:1001F00001F0FF01102A2BDB10F0070F08D010F8D8
:10020000013B013A8B422DD010F0070F42B3F6D1DB
:10021000F0B441EA012141EA014122F007047FF0F4
:1002200000070023F0E80256083C85EA010586EA4B
:10023000010685FA47F5A3FA87F586FA47F6A5FA87
:1002400087F68EB9EED1F0BC01F0FF0102F0070293
:1002500032B110F8013B013A83EA010313B1F8D13E
:100260000020704701387047002D06BF354603381F
:10027000073815F0010F07D1013015F4807F02BF58
:10028000013015F4C03F0130F0BC0138704700BFA9
:1002900053B94AB9002908BF00281CBF4FF0FF31ED
:1002A0004FF0FF3000F07AB9ADF1080C6DE904CEE3
:1002B00000F006F8DDF804E0DDE9022304B0704741
:1002C0002DE9F0478C460D460446089E002B51D17F
:1002D0008A4217466DD9B2FA82FEBEF1000F0BD0EA
:1002E000CEF1200C01FA0EF520FA0CFC02FA0EF702
:1002F0004CEA050C00FA0EF44FEA174A250CBCFB39
:10030000FAF81FFA87F90AFB18CC45EA0C4508FBF6
:1003100009F3AB420AD9ED1908F1FF3280F02381CD
:10032000AB4240F22081A8F102083D44ED1AA4B28C
:10033000B5FBFAF00AFB105544EA054400FB09F945
:10034000A14509D9E41900F1FF3380F00A81A145E4
:1003500040F2078102383C44A4EB090440EA08401B
:100360000021002E61D024FA0EF400233460736063
:10037000BDE8F0878B4207D9002E54D0002186E8D3
:1003800021000846BDE8F087B3FA83F1002940F068
:100390008E80AB4202D3824200F2FA80841A65EB6F
:1003A00003050120AC46002E3FD086E81010BDE8C2
:1003B000F08712B90127B7FBF2F7B7FA87FEBEF153
:1003C000000F34D1EB1B3A0C1FFA87FC0121B3FB61
:1003D000F2F8250C02FB183345EA03450CFB08F341
:1003E000AB4207D9ED1908F1FF3002D2AB4200F25F
:1003F000D1808046ED1AA3B2B5FBF2F002FB105596
:1004000043EA05440CFB00FCA44507D9E41900F1BC
:10041000FF3302D2A44500F2B8801846A4EB0C04C6
:1004200040EA08409DE731463046BDE8F087CEF10E
:10043000200405FA0EF307FA0EF720FA04F83A0C36
:1004400025FA04F448EA0308B4FBF2F14FEA184530
:1004500002FB11441FFA87FC45EA044501FB0CF33B
:10046000AB4200FA0EF409D9ED1901F1FF3080F02A
:100470008A80AB4240F2878002393D44EB1A1FFA72
:1004800088F5B3FBF2F002FB103345EA034500FBAD
:100490000CF3AB4207D9ED1900F1FF386FD2AB4234
:1004A0006DD902383D44EB1A40EA01418FE7C1F1B2
:1004B000200722FA07F88B4005FA01F448EA030303
:1004C00020FA07FE4FEA134CFD404EEA040EB5FB3E
:1004D000FCF94FEA1E440CFB19551FFA83F844EA55
:1004E000054509FB08F4AC4202FA01F200FA01FAF0
:1004F00008D9ED1809F1FF3043D2AC4241D9A9F136
:1005000002091D442D1B1FFA8EFEB5FBFCF00CFBEF
:1005100010554EEA054400FB08F8A04507D9E41839
:1005200000F1FF3529D2A04527D902381C4440EA02
:100530000940A4EB0804A0FB02894C45C6464D4681
:1005400015D312D056B1BAEB0E0364EB050404FACE
:1005500007F7CB401F43CC40376074600021BDE8F3
:10056000F0871846F8E69046E0E6C245EAD2B8EBD6
:10057000020E69EB03050138E4E72846D7E7404659
:1005800091E78146BEE7014678E702383C4445E7FB
:10059000084608E7A8F102083D442BE7704700BF72
:1005A00080B500AF0E4A0E4B1B6843F40073136016
:1005B0000B4A0B4B1B6843F480631360084A084BDB
:1005C0001B6843F480731360032000F025F90020BA
:1005D00000F008F801F018FE0023184680BD00BFA7
:1005E000003C024080B582B000AF7860124B1A68C0
:1005F000124B1B7819464FF47A73B3FBF1F3B2FB3D
:10060000F3F3184600F03DF90346002B01D0012317
:100610000EE07B680F2B0AD8002279684FF0FF307C
:1006200000F005F9064A7B681360002300E001230F
:1006300018460837BD4680BD080000200400002091
:100640000000002080B400AF064B1B781A46064B12
:100650001B681344044A136000BFBD465DF8047B69
:10066000704700BF040000209800002080B400AF55
:10067000034B1B681846BD465DF8047B704700BFFE
:100680009800002080B485B000AF78607B6803F0EC
:100690000703FB600C4BDB68BB60BA684FF6FF03D7
:1006A0001340BB60FB681A02BB68134343F0BF638F
:1006B00043F40033BB60044ABB68D36000BF143707
:1006C000BD465DF8047B704700ED00E080B400AFEC
:1006D000044BDB681B0A03F007031846BD465DF8B0
:1006E000047B704700ED00E080B483B000AF0346A8
:1006F000FB71094997F907305B09FA7902F01F028B
:10070000012000FA02F241F8232000BF0C37BD4659
:100710005DF8047B704700BF00E100E080B483B067
:1007200000AF03463960FB7197F90730002B0BDAF5
:100730000D49FB7903F00F03043B3A68D2B2120172
:10074000D2B20B441A7609E0084997F907303A68A3
:10075000D2B21201D2B20B4483F8002300BF0C378F
:10076000BD465DF8047B704700ED00E000E100E06D
:1007700080B489B000AFF860B9607A60FB6803F0BC
:100780000703FB61FB69C3F10703042B28BF0423A4
:10079000BB61FB690433062B02D9FB69033B00E014
:1007A00000237B610122BB6902FA03F35A1EBB6876
:1007B0001A407B699A4001217B6901FA03F3591EB3
:1007C0007B680B40134318462437BD465DF8047B15
:1007D0007047000080B582B000AF78607B68013B55
:1007E000B3F1807F01D301230FE00A4A7B68013B0C
:1007F00053600F214FF0FF30FFF790FF054B0022B1
:100800009A60044B07221A60002318460837BD4639
:1008100080BD00BF10E000E080B582B000AF78601E
:100820007868FFF72FFF00BF0837BD4680BD80B551
:1008300086B000AF0346B9607A60FB7300237B612A
:10084000FFF744FF78617A68B9687869FFF790FF2D
:10085000024697F90F3011461846FFF75FFF00BFB9
:100860001837BD4680BD80B582B000AF0346FB712E
:1008700097F907301846FFF737FF00BF0837BD4626
:1008800080BD80B582B000AF78607868FFF7A2FFC6
:10089000034618460837BD4680BD000080B483B0CB
:1008A00000AF78607B68042B06D1094A084B1B68AF
:1008B00043F00403136005E0054A054B1B6823F071
:1008C0000403136000BF0C37BD465DF8047B70471E
:1008D00010E000E080B500AF00F002F800BF80BD7E
:1008E00080B400AF00BFBD465DF8047B704780B4A4
:1008F00083B000AF78607B6893F83530DBB2022BB1
:1009000004D07B6880225A6501230CE07B680522B5
:1009100083F835207B681B687A681268126822F0B9
:1009200001021A60002318460C37BD465DF8047BAF
:100930007047000080B489B000AF78603960002350
:100940007B6100233B610023BB610023FB6177E1F6
:100950000122FB6902FA03F37B613B681A687B6939
:1009600013403B613A697B699A4240F066813B687B
:100970005B68022B03D03B685B68122B23D1FB69B9
:10098000DA087B68083253F82230BB61FB6903F058
:1009900007039B000F2202FA03F3DB43BA691340FB
:1009A000BB613B681A69FB6903F007039B0002FA0D
:1009B00003F3BA691343BB61FB69DA087B68083249
:1009C000B96943F822107B681B68BB61FB695B0057
:1009D000032202FA03F3DB43BA691340BB613B68AD
:1009E0005B6803F00302FB695B0002FA03F3BA6978
:1009F0001343BB617B68BA691A603B685B68012B73
:100A00000BD03B685B68022B07D03B685B68112BFF
:100A100003D03B685B68122B30D17B689B68BB615D
:100A2000FB695B00032202FA03F3DB43BA6913405C
:100A3000BB613B68DA68FB695B0002FA03F3BA69E1
:100A40001343BB617B68BA699A607B685B68BB6172
:100A50000122FB6902FA03F3DB43BA691340BB616D
:100A60003B685B681B0903F00102FB6902FA03F3B0
:100A7000BA691343BB617B68BA695A607B68DB68FB
:100A8000BB61FB695B00032202FA03F3DB43BA6933
:100A90001340BB613B689A68FB695B0002FA03F391
:100AA000BA691343BB617B68BA69DA603B685B680B
:100AB00003F08053002B00F0C0800023FB60654AE8
:100AC000644B5B6C43F480435364624B5B6C03F494
:100AD0008043FB60FB68604AFB699B08023352F865
:100AE0002330BB61FB6903F003039B000F2202FA72
:100AF00003F3DB43BA691340BB617B68574A9342F7
:100B000037D07B68564A934231D07B68554A93422E
:100B10002BD07B68544A934225D07B68534A93423A
:100B20001FD07B68524A934219D07B68514A934246
:100B300013D07B68504A93420DD07B684F4A934252
:100B400007D07B684E4A934201D1092312E00A2361
:100B500010E008230EE007230CE006230AE005233B
:100B600008E0042306E0032304E0022302E001235B
:100B700000E00023FA6902F0030292009340BA6990
:100B80001343BB613449FB699B080233BA6941F8DE
:100B900023203C4B1B68BB613B69DB43BA691340B4
:100BA000BB613B685B6803F48033002B03D0BA69F8
:100BB0003B691343BB61334ABB691360314B5B68CC
:100BC000BB613B69DB43BA691340BB613B685B684F
:100BD00003F40033002B03D0BA693B691343BB61B4
:100BE000284ABB695360274B9B68BB613B69DB4369
:100BF000BA691340BB613B685B6803F48013002B48
:100C000003D0BA693B691343BB611E4ABB69936059
:100C10001C4BDB68BB613B69DB43BA691340BB61BA
:100C20003B685B6803F40013002B03D0BA693B698F
:100C30001343BB61134ABB69D360FB690133FB619A
:100C4000FB690F2B7FF684AE00BF2437BD465DF8ED
:100C5000047B704700380240003801400000024029
:100C60000004024000080240000C02400010024054
:100C70000014024000180240001C02400020024004
:100C800000240240003C014080B483B000AF786093
:100C90000B467B8013467B707B78002B03D07A88D1
:100CA0007B689A6103E07B881A047B689A6100BFC5
:100CB0000C37BD465DF8047B704780B483B000AF4D
:100CC00078600B467B807B685A697B885A407B68DA
:100CD0005A6100BF0C37BD465DF8047B70470000C9
:100CE00080B586B000AF78607B68002B01D101230E
:100CF0002DE27B681B6803F00103002B75D0A34B2A
:100D00009B6803F00C03042B0CD0A04B9B6803F0F2
:100D10000C03082B12D19D4B5B6803F48003B3F5E1
:100D2000800F0BD1994B1B6803F40033002B5BD071
:100D30007B685B68002B57D1012308E27B685B6806
:100D4000B3F5803F06D1914A904B1B6843F4803342
:100D500013601DE07B685B68B3F5A02F0CD18B4A54
:100D60008A4B1B6843F480231360884A874B1B68B7
:100D700043F4803313600BE0844A844B1B6823F4F4
:100D800080331360814A814B1B6823F480231360F6
:100D90007B685B68002B13D0FFF768FC386108E0C4
:100DA000FFF764FC02463B69D31A642B01D9032385
:100DB000CDE1764B1B6803F40033002BF0D014E038
:100DC000FFF754FC386108E0FFF750FC02463B692E
:100DD000D31A642B01D90323B9E16C4B1B6803F4CC
:100DE0000033002BF0D100E000BF7B681B6803F0EC
:100DF0000203002B63D0654B9B6803F00C03002BB0
:100E00000BD0624B9B6803F00C03082B1CD15F4B8B
:100E10005B6803F48003002B16D15C4B1B6803F066
:100E20000203002B05D07B68DB68012B01D0012376
:100E30008DE15649554B1B6823F0F8027B681B690E
:100E4000DB0013430B603AE07B68DB68002B20D0AB
:100E50004F4B01221A60FFF709FC386108E0FFF7E9
:100E600005FC02463B69D31A022B01D903236EE12C
:100E7000464B1B6803F00203002BF0D04349434B61
:100E80001B6823F0F8027B681B69DB0013430B60CF
:100E900015E03F4B00221A60FFF7E8FB386108E0DD
:100EA000FFF7E4FB02463B69D31A022B01D9032367
:100EB0004DE1364B1B6803F00203002BF0D17B6839
:100EC0001B6803F00803002B30D07B685B69002BA4
:100ED00016D0304B01221A60FFF7C8FB386108E0DA
:100EE000FFF7C4FB02463B69D31A022B01D9032347
:100EF0002DE1264B5B6F03F00203002BF0D015E0D1
:100F0000244B00221A60FFF7B1FB386108E0FFF7BD
:100F1000ADFB02463B69D31A022B01D9032316E12C
:100F20001A4B5B6F03F00203002BF0D17B681B6848
:100F300003F00403002B00F0A0800023FB75134B8B
:100F40001B6C03F08053002B0FD10023FB600F4A72
:100F50000E4B1B6C43F0805313640C4B1B6C03F063
:100F60008053FB60FB680123FB750B4B1B6803F48C
:100F70008073002B21D1084A074B1B6843F4807310
:100F80001360FFF773FB386111E000BF00380240C7
:100F900000004742800E474200700040FFF766FBAA
:100FA00002463B69D31A022B01D90323CFE06A4BD7
:100FB0001B6803F48073002BF0D07B689B68012BC7
:100FC00006D1664A654B1B6F43F0010313671CE0B3
:100FD0007B689B68052B0CD1604A604B1B6F43F00C
:100FE000040313675D4A5D4B1B6F43F001031367F6
:100FF0000BE05A4A594B1B6F23F001031367574A02
:10100000564B1B6F23F0040313677B689B68002B10
:1010100015D0FFF72BFB38610AE0FFF727FB0246EC
:101020003B69D31A41F28832934201D903238EE0FF
:101030004A4B1B6F03F00203002BEED014E0FFF7C6
:1010400015FB38610AE0FFF711FB02463B69D31A32
:1010500041F28832934201D9032378E03F4B1B6F62
:1010600003F00203002BEED1FB7D012B05D13B4A9F
:101070003A4B1B6C23F0805313647B689B69002BF5
:1010800064D0364B9B6803F00C03082B5CD07B6864
:101090009B69022B41D1324B00221A60FFF7E6FA1E
:1010A000386108E0FFF7E2FA02463B69D31A022BE7
:1010B00001D903234BE0294B1B6803F00073002B7D
:1010C000F0D126497B68DA697B681B6A1A437B6822
:1010D0005B6A9B011A437B689B6A5B08013B1B04AC
:1010E0001A437B68DB6A1B0613434B601C4B0122CF
:1010F0001A60FFF7BBFA386108E0FFF7B7FA02465B
:101100003B69D31A022B01D9032320E0134B1B6840
:1011100003F00073002BF0D018E0114B00221A608E
:10112000FFF7A4FA386108E0FFF7A0FA02463B692E
:10113000D31A022B01D9032309E0084B1B6803F0E3
:101140000073002BF0D101E0012300E000231846DA
:101150001837BD4680BD00BF007000400038024017
:101160006000474280B584B000AF786039607B682A
:10117000002B01D10123CAE0674B1B6803F00F026B
:101180003B689A420CD2644B3A68D2B21A70624BF6
:101190001B6803F00F023B689A4201D00123B6E0BE
:1011A0007B681B6803F00203002B20D07B681B6860
:1011B00003F00403002B05D0584A584B9B6843F4B6
:1011C000E05393607B681B6803F00803002B05D095
:1011D000524A524B9B6843F4604393604F494F4BD4
:1011E0009B6823F0F0027B689B6813438B607B68ED
:1011F0001B6803F00103002B44D07B685B68012B64
:1012000007D1464B1B6803F40033002B19D101238F
:101210007DE07B685B68022B03D07B685B68032BF7
:1012200007D13E4B1B6803F00073002B09D101234B
:101230006DE03A4B1B6803F00203002B01D1012340
:1012400065E03649354B9B6823F003027B685B6899
:1012500013438B60FFF70AFAF8600AE0FFF706FA1B
:101260000246FB68D31A41F28832934201D9032324
:101270004DE02A4B9B6803F00C027B685B689B0087
:101280009A42EBD1244B1B6803F00F023B689A4251
:101290000CD9214B3A68D2B21A701F4B1B6803F06D
:1012A0000F023B689A4201D0012330E07B681B6843
:1012B00003F00403002B08D01849184B9B6823F453
:1012C000E0527B68DB6813438B607B681B6803F02C
:1012D0000803002B09D01149104B9B6823F460428E
:1012E0007B681B69DB0013438B6000F01DF801462F
:1012F0000A4B9B681B0903F00F03094AD35C21FAD0
:1013000003F3084A13600020FFF76CF90023184626
:101310001037BD4680BD00BF003C0240003802408F
:1013200060340008080000202DE9F04F8FB000AFB6
:101330000023FB6200237B630023BB6200233B632B
:10134000624B9B6803F00C03042B07D0082B08D0DA
:10135000002B40F0B2805E4B3B63B1E05D4B3B63E2
:10136000AEE05A4B5B6803F03F03FB62574B5B6890
:1013700003F48003002B4ED0544B5B689B094FF065
:10138000000440F2FF114FF0000201EA030102EAFB
:1013900004020B46144660017862786A40EAD36022
:1013A00078625B013B62D7E908345B1A64EB0204A4
:1013B0004FEA841949EA93694FEA8318B8EB0308A6
:1013C00069EB04094FEAC903FB61FB6943EA5873FF
:1013D000FB614FEAC803BB61D7E9068918EB010836
:1013E00049EB02094FEA49237B617B6943EAD85301
:1013F0007B614FEA48233B61D7E90489404649466F
:10140000FB6A4FF000041A462346FEF741FF0346ED
:101410000C467B6343E02D4B5B689B094FF0000457
:1014200040F2FF114FF0000201EA030102EA040258
:101430000B4614466001F860F86840EAD360F86033
:101440005B01BB60D7E902345B1A64EB0204A601BE
:1014500046EA93669D01ED1A66EB0406F3007B6095
:101460007B6843EA55737B60EB003B6097E8600064
:101470006D1846EB02064FEA862B4BEA955B4FEA66
:10148000852A55465E4628463146FB6A4FF00004E1
:101490001A462346FEF7FCFE03460C467B630B4BC5
:1014A0005B681B0C03F0030301335B00BB627A6BC8
:1014B000BB6AB2FBF3F33B6302E0054B3B6300BF47
:1014C0003B6B18463C37BD46BDE8F08F0038024004
:1014D0000024F40000127A0080B400AF034B1B68B4
:1014E0001846BD465DF8047B704700BF0800002029
:1014F00080B500AFFFF7F0FF0146054B9B689B0AE4
:1015000003F00703034AD35C21FA03F3184680BDB6
:10151000003802407034000880B500AFFFF7DCFFF0
:101520000146054B9B685B0B03F00703034AD35C42
:1015300021FA03F3184680BD0038024070340008D9
:1015400080B582B000AF78607B68002B01D10123A9
:101550003FE07B6893F83930DBB2002B06D17B6823
:10156000002283F83820786800F0CAFF7B682422C4
:1015700083F839207B681B687A681268D26822F485
:101580000052DA60786800F03DFB7B681B687A687F
:101590001268126922F490421A617B681B687A68AB
:1015A0001268526922F02A025A617B681B687A68C5
:1015B0001268D26842F40052DA607B680022DA6373
:1015C0007B68202283F839207B68202283F83A2028
:1015D000002318460837BD4680BD80B588B002AFED
:1015E000F860B9603B601346FB8000237B61FB68B9
:1015F00093F83930DBB2202B40F08280BB68002B9F
:1016000002D0FB88002B01D101237AE0FB6893F81C
:101610003830012B01D1022373E0FB68012283F8EB
:101620003820FB680022DA63FB68212283F8392026
:10163000FFF71CF87861FB68FA889A84FB68FA88DF
:10164000DA8441E0FB68DB8C9BB2013B9AB2FB6819
:10165000DA84FB689B68B3F5805F21D13B68009317
:101660007B6900228021F86800F06AF90346002BAC
:1016700001D0032345E0BB683B61FB681B683A6906
:101680001288C2F308025A60FB681B69002B03D161
:10169000BB680233BB6017E0BB680133BB6013E07B
:1016A0003B6800937B6900228021F86800F048F9CC
:1016B0000346002B01D0032323E0FB681A68BB68B4
:1016C000591CB9601B785360FB68DB8C9BB2002B04
:1016D000B8D13B6800937B6900224021F86800F094
:1016E0002FF90346002B01D003230AE0FB682022D8
:1016F00083F83920FB68002283F83820002300E0BB
:10170000022318461837BD4680BD000080B588B05A
:1017100000AF78607B681B681B68FB617B681B6897
:10172000DB68BB617B681B685B697B6100233B6195
:101730000023FB60FB6903F00F033B613B69002B57
:101740000DD1FB6903F02003002B08D0BB6903F027
:101750002003002B03D0786800F0DBF9CCE03B6974
:10176000002B00F0AB807B6903F00103002B05D157
:10177000BB6903F49073002B00F0A080FB6903F0B9
:101780000103002B0AD0BB6903F48073002B05D042
:101790007B68DB6B43F001027B68DA63FB6903F073
:1017A0000403002B0AD07B6903F00103002B05D052
:1017B0007B68DB6B43F002027B68DA63FB6903F052
:1017C0000203002B0AD07B6903F00103002B05D034
:1017D0007B68DB6B43F004027B68DA63FB6903F030
:1017E0000803002B0AD07B6903F00103002B05D00E
:1017F0007B68DB6B43F008027B68DA637B68DB6B3A
:10180000002B78D0FB6903F02003002B07D0BB69C5
:1018100003F02003002B02D0786800F07AF97B688F
:101820001B685B6903F04003002B14BF01230023F6
:10183000DBB2FB607B68DB6B03F00803002B02D19B
:10184000FB68002B31D0786800F0C4F87B681B6817
:101850005B6903F04003002B23D07B681B687A6828
:101860001268526922F040025A617B685B6B002B60
:1018700013D07B685B6B224A1A657B685B6B1846EA
:10188000FFF735F80346002B16D07B685B6B1B6DAA
:101890007A68526B104698470EE0786800F046F878
:1018A0000AE0786800F042F806E0786800F03EF858
:1018B0007B680022DA631EE000BF1CE0FB6903F0D6
:1018C0008003002B08D0BB6903F08003002B03D0FA
:1018D000786800F0B1F80FE0FB6903F04003002BDB
:1018E0000AD0BB6903F04003002B05D0786800F0F4
:1018F000F8F800BF00E000BF2037BD4680BD00BF44
:10190000111A000880B483B000AF786000BF0C37B4
:10191000BD465DF8047B704780B483B000AF78604B
:1019200000BF0C37BD465DF8047B704780B483B0C0
:1019300000AF786000BF0C37BD465DF8047B704790
:1019400080B584B000AFF860B9603B601346FB71AE
:101950002CE0BB69B3F1FF3F28D0BB69002B07D057
:10196000FEF784FE02463B68D21ABB699A421DD933
:10197000FB681B68FA681268D26822F4D072DA60D9
:10198000FB681B68FA681268526922F001025A610A
:10199000FB68202283F83920FB68202283F83A2054
:1019A000FB68002283F8382003230FE0FB681B68E4
:1019B0001A68BB681A40BB689A420CBF0123002317
:1019C000DBB21A46FB799A42C3D00023184610377F
:1019D000BD4680BD80B483B000AF78607B681B6873
:1019E0007A681268D26822F49072DA607B681B68A9
:1019F0007A681268526922F001025A617B682022DB
:101A000083F83A2000BF0C37BD465DF8047B704771
:101A100080B584B000AF78607B689B6BFB60FB682F
:101A20000022DA85FB680022DA84F868FFF77EFF7F
:101A300000BF1037BD4680BD80B485B000AF786070
:101A40007B6893F83930DBB2212B43D17B689B68EC
:101A5000B3F5805F19D17B681B6AFB607B681B68EC
:101A6000FA681288C2F308025A607B681B69002B6F
:101A700005D17B681B6A9A1C7B681A620EE07B6842
:101A80001B6A5A1C7B681A6208E07B681A687B68CC
:101A90001B6A581C796808621B7853607B68DB8C72
:101AA0009BB2013B9BB27A681946D184002B0FD1BF
:101AB0007B681B687A681268D26822F08002DA605C
:101AC0007B681B687A681268D26842F04002DA606C
:101AD000002300E0022318461437BD465DF8047B5E
:101AE000704780B582B000AF78607B681B687A6809
:101AF0001268D26822F04002DA607B68202283F804
:101B000039207868FFF7FEFE002318460837BD46E7
:101B100080BD80B584B000AF78607B6893F83A30C0
:101B2000DBB2222B69D17B689B68B3F5805F23D140
:101B30007B689B6AFB607B681B69002B0ED17B680E
:101B40001B685B689BB2C3F308039AB2FB681A80F8
:101B50007B689B6A9A1C7B689A6229E07B681B6899
:101B60005B689BB2DBB29AB2FB681A807B689B6AA7
:101B70005A1C7B689A621BE07B681B69002B0AD1A8
:101B80007B689B6A591C7A6891627A68126852680D
:101B9000D2B21A700CE07B689B6A591C7A68916219
:101BA0007A6812685268D2B202F07F02D2B21A701A
:101BB0007B68DB8D9BB2013B9BB27A681946D1856D
:101BC000002B18D17B681B687A681268D26822F4EF
:101BD0009072DA607B681B687A681268526922F03A
:101BE00001025A617B68202283F83A207868FFF767
:101BF00093FE002302E0002300E002231846103782
:101C0000BD4680BDF0B585B000AF78600023FB60B5
:101C10007B681B681B69FB60FB6823F44053FB6017
:101C20007B68DB68FA681343FB607B681B68FA68B3
:101C30001A617B681B68DB68FB60FB6823F4164352
:101C400023F00C03FB607B689A687B681B691A436E
:101C50007B685B691A437B68DB691343FA6813434B
:101C6000FB607B681B68FA68DA607B681B685B69ED
:101C7000FB60FB6823F44073FB607B689B69FA6838
:101C80001343FB607B681B68FA685A617B68DB69F9
:101C9000B3F5004F40F0E4807B681B68AB4A934289
:101CA00004D07B681B68AA4A93426CD17B681C688D
:101CB000FFF732FC024613469B0013449A001A4475
:101CC0007B685B685B00B2FBF3F3A24AA2FB0323D1
:101CD0005B091D01FFF720FC024613469B001344DD
:101CE0009A001A447B685B685B00B2FBF3F6FFF76F
:101CF00013FC024613469B0013449A001A447B6867
:101D00005B685B00B2FBF3F3924AA2FB03235B091F
:101D1000642202FB03F3F31ADB0032338D4AA2FB89
:101D200003235B095B0003F4F8731D44FFF7F4FB26
:101D3000024613469B0013449A001A447B685B6872
:101D40005B00B2FBF3F6FFF7E7FB024613469B008E
:101D500013449A001A447B685B685B00B2FBF3F3A0
:101D60007C4AA2FB03235B09642202FB03F3F31A00
:101D7000DB003233774AA2FB03235B0903F007033E
:101D80002B44A36054E17B681C68FFF7B1FB02465B
:101D900013469B0013449A001A447B685B685B00FF
:101DA000B2FBF3F36B4AA2FB03235B091D01FFF7B0
:101DB0009FFB024613469B0013449A001A447B681B
:101DC0005B685B00B2FBF3F6FFF792FB024613463B
:101DD0009B0013449A001A447B685B685B00B2FB6B
:101DE000F3F35C4AA2FB03235B09642202FB03F3C7
:101DF000F31ADB003233574AA2FB03235B095B0073
:101E000003F4F8731D44FFF773FB024613469B006F
:101E100013449A001A447B685B685B00B2FBF3F6DC
:101E2000FFF766FB024613469B0013449A001A44D0
:101E30007B685B685B00B2FBF3F3464AA2FB0323BB
:101E40005B09642202FB03F3F31ADB003233414ADD
:101E5000A2FB03235B0903F007032B44A360E7E025
:101E60007B681B68394A934204D07B681B68384AF8
:101E7000934271D17B681C68FFF74EFB0246134604
:101E80009B0013449A001A447B685B689B00B2FB7A
:101E9000F3F3304AA2FB03235B091D01FFF73CFB70
:101EA000024613469B0013449A001A447B685B6801
:101EB0009B00B2FBF3F6FFF72FFB024613469B0095
:101EC00013449A001A447B685B689B00B2FBF3F3EF
:101ED000204AA2FB03235B09642202FB03F3F31AEB
:101EE0001B0132331B4AA2FB03235B0903F0F003FF
:101EF0001D44FFF711FB024613469B0013449A0052
:101F00001A447B685B689B00B2FBF3F6FFF704FBA7
:101F1000024613469B0013449A001A447B685B6890
:101F20009B00B2FBF3F30B4AA2FB03235B09642281
:101F300002FB03F3F31A1B013233064AA2FB03230D
:101F40005B0903F00F032B44A36071E00010014014
:101F5000001401401F85EB517B681C68FFF7C8FA2D
:101F6000024613469B0013449A001A447B685B6840
:101F70009B00B2FBF3F3304AA2FB03235B091D0174
:101F8000FFF7B6FA024613469B0013449A001A4420
:101F90007B685B689B00B2FBF3F6FFF7A9FA024689
:101FA00013469B0013449A001A447B685B689B00AD
:101FB000B2FBF3F3204AA2FB03235B09642202FB7A
:101FC00003F3F31A1B0132331B4AA2FB03235B0901
:101FD00003F0F0031D44FFF78BFA024613469B0003
:101FE00013449A001A447B685B689B00B2FBF3F6CB
:101FF000FFF77EFA024613469B0013449A001A44E8
:102000007B685B689B00B2FBF3F30B4AA2FB0323E4
:102010005B09642202FB03F3F31A1B013233064A05
:10202000A2FB03235B0903F00F032B44A360FFE72C
:1020300000BF1437BD46F0BD1F85EB5180B588B099
:1020400000AF0023BB60204A1F4B1B6B43F0800393
:1020500013631D4B1B6B03F08003BB60BB68002345
:102060007B60194A184B1B6B43F001031363164B3B
:102070001B6B03F001037B607B6800233B60124A0B
:10208000114B1B6B43F0400313630F4B1B6B03F0AF
:1020900040033B603B6800224FF4C0410B48FEF711
:1020A000F3FD4FF4C043FB6001233B6100237B61E0
:1020B0000023BB6107F10C0319460448FEF73AFC04
:1020C00000BF2037BD4680BD0038024000180240E6
:1020D00080B582B000AF7860391D4FF6FF730122E2
:1020E0000348FFF77AFA7B6818460837BD4680BD7B
:1020F0009C00002080B500AFFEF752FA00F012F805
:10210000FFF79CFF00F0CEF9044800F081FA4FF48D
:1021100000510348FEF7D1FDF6E700BF2834000860
:102120000018024080B594B000AF0023BB602F4A76
:102130002E4B1B6C43F0805313642C4B1B6C03F031
:102140008053BB60BB6800237B60294A284B1B6817
:1021500023F4404343F480431360254B1B6803F48E
:1021600040437B607B6802233B620123FB621023B8
:102170003B630023BB6307F120031846FEF7B0FD65
:102180000346002B03D0D4211A4800F037F80F2360
:10219000FB6000233B6100237B610023BB610023C4
:1021A000FB6107F10C0300211846FEF7DBFF034635
:1021B000002B03D0E2210F4800F020F8FFF78CF944
:1021C00002460D4BA3FB02239B091846FEF759FB61
:1021D0000420FEF763FB002200214FF0FF30FEF7E2
:1021E00026FB00BF5037BD4680BD00BF003802400F
:1021F0000070004040340008D34D621080B483B0BA
:1022000000AF78603960FEE780B582B000AF002390
:102210007B60254A244B5B6C43F480435364224B20
:102220005B6C03F480437B607B6800233B601E4A49
:102230001D4B1B6C43F0805313641B4B1B6C03F052
:1022400080533B603B680320FEF7E6FA0022002142
:102250006FF00B00FEF7EBFA002200216FF00A008E
:10226000FEF7E5FA002200216FF00900FEF7DFFA21
:10227000002200216FF00400FEF7D9FA00220021AD
:102280006FF00300FEF7D3FA002200216FF0010087
:10229000FEF7CDFA002200214FF0FF30FEF7C7FA1B
:1022A00000BF0837BD4680BD0038024080B400AF93
:1022B00000BFBD465DF8047B704780B400AFFEE709
:1022C00080B400AFFEE780B400AFFEE780B400AF9B
:1022D000FEE780B400AF00BFBD465DF8047B7047E9
:1022E00080B400AF00BFBD465DF8047B704780B48A
:1022F00000AF00BFBD465DF8047B704780B500AFFE
:10230000FEF7A0F9FEF7E6FA00BF80BD80B500AF8A
:102310000248FFF7FBF900BF80BD00BF9C00002012
:1023200080B586B000AFF860B9607A6000237B6149
:1023300009E0BB685A1CBA601B781846FFF7C8FE54
:102340007B6901337B617A697B689A42F1DB7B6848
:1023500018461837BD4680BD80B485B000AF7860A0
:10236000114B1B68002B02D10F4B104A1A600E4B09
:102370001B68FB600C4B1A687B6813446A469342E7
:1023800005D90B4B0C221A604FF0FF3306E0064BC9
:102390001A687B681344044A1360FB6818461437B4
:1023A000BD465DF8047B70478C000020E0000020F3
:1023B000DC00002080B483B000AF78604FF0FF33C2
:1023C00018460C37BD465DF8047B704780B483B077
:1023D00000AF786039603B684FF400525A600023C8
:1023E00018460C37BD465DF8047B704780B483B057
:1023F00000AF7860012318460C37BD465DF8047BBA
:10240000704780B485B000AFF860B9607A6000238F
:1024100018461437BD465DF8047B704780B485B01C
:1024200000AFF860B9607A60002318461437BD46E3
:102430005DF8047B7047000080B400AF164A164B6D
:10244000D3F8883043F47003C2F88830134A134B32
:102450001B6843F001031360104B00229A600F4A7F
:102460000E4B1B6823F0847323F4803313600B4BF3
:102470000B4A5A60094A094B1B6823F480231360F6
:10248000064B0022DA60044B4FF000629A6000BFF6
:10249000BD465DF8047B704700ED00E00038024067
:1024A0001030002480B500AF124B134A1A60114B54
:1024B0004FF4E1325A600F4B00229A600D4B00221C
:1024C000DA600C4B00221A610A4B0C225A61094B4C
:1024D00000229A61074B0022DA610648FFF730F8C4
:1024E0000346002B03D042210448FFF787FE00BFBC
:1024F00080BD00BF9C000020001001405034000847
:1025000080B588B000AF78607B681B68164A93423C
:1025100026D10023BB60154A144B5B6C43F01003BB
:102520005364124B5B6C03F01003BB60BB684FF449
:10253000C063FB6002233B6101237B610323BB611A
:102540000723FB6107F10C0319460948FEF7F2F96E
:10255000002200212520FEF76AF92520FEF783F9E5
:1025600000BF2037BD4680BD00100140003802404A
:1025700000000240DFF834D0002103E00C4B5B5830
:10258000435004310B480C4B42189A42F6D30B4A85
:1025900002E0002342F8043B094B9A42F9D3FFF7CB
:1025A0004BFF00F011F8FFF7A5FD70470000032076
:1025B000203500080000002070000020700000207E
:1025C000E0000020FEE7000070B50D4E0D4CA41B8E
:1025D000A4100025A54209D10B4E0C4C00F018FFA9
:1025E000A41BA4100025A54205D170BD56F82530C6
:1025F00098470135EEE756F8253098470135F2E760
:102600001835000818350008183500081C35000872
:102610000FB40A4B13B51C6824B1A36913B9204643
:1026200000F04EF805AB049AA1680193204600F033
:10263000AFF902B0BDE8104004B070470C000020B4
:10264000014900F0A9B800BF65320008002310B5A9
:10265000044603604360836081814366C2810361F5
:1026600043618361194608225C3000F0B3F8054BE2
:102670006362054BA362054BE362054B246223634F
:1026800010BD00BF092F00082B2F0008632F000882
:10269000872F000870B54A1E682555430E4605F180
:1026A000740100F0EDF8044640B1002180E84200DA
:1026B0000C30A06005F1680200F08CF8204670BD77
:1026C000836910B5044633BB8364C3640365124B4E
:1026D000124A1B688262984204BF0123836100F0A2
:1026E0001FF86060204600F01BF8A060204600F054
:1026F00017F80022E06004216068FFF7A7FF0122BD
:102700000921A068FFF7A2FF02221221E068FFF76B
:102710009DFF0123A36110BDD834000841260008A5
:10272000F8B51C4B1E68B369074613B93046FFF76E
:10273000C7FF4836B4687368013B03D5336833B1CB
:102740003668F7E7B4F90C506DB16834F4E704214A
:102750003846FFF79FFF30600028F1D10C233B6023
:1027600004462046F8BD4FF6FF73E3810123A381A1
:1027700065662560A560656025616561A5610822C3
:10278000294604F15C0000F025F86563A563A564A3
:10279000E564E6E7D83400082DE9F8438046894629
:1027A00000F14804002614B93046BDE8F883A56856
:1027B0006768013F01D52468F5E7AB89012B07D98C
:1027C000B5F90E30013303D029464046C8470643C9
:1027D0006835EEE702440346934200D1704703F8A0
:1027E000011BF9E738B50546002945D051F8043CEE
:1027F0000C1F002BB8BFE41800F0D4FD1F4A13686B
:10280000104633B9636014602846BDE8384000F0D4
:10281000CABDA3420CD921686218934204BF1A684A
:102820005B68636004BF521822600460ECE71346E3
:102830005A680AB1A242FAD919685818A0420BD1B5
:1028400020680144581882421960DDD1106852682E
:102850005A6001441960D7E702D90C232B60D3E7F3
:10286000206821188A4204BF11685268626004BF60
:10287000091821605C60C7E738BD00BF90000020E8
:1028800070B5CD1C25F0030508350C2D38BF0C257F
:10289000002D064601DBA94203D90C23336000203A
:1028A00070BD00F07FFD234A1468214691B9224C87
:1028B00023681BB9304600F017FB206029463046DC
:1028C00000F012FB431C26D10C233360304600F08D
:1028D0006AFDE4E70B685B1B1AD40B2B0FD90B6066
:1028E000CD50CC18304600F05EFD04F10B00231DE6
:1028F00020F00700C31A1BD05A42E25070BD8C4230
:102900000DBF63684B686360136018BF0C46E9E74E
:102910000C464968CAE7C41C24F00304A04205D051
:10292000211A304600F0E0FA0130CDD02560D9E719
:1029300070BD00BF90000020940000209368013B10
:10294000002B10B4936009DA9469A34202DBCBB286
:102950000A2B03D15DF8044B00F01ABB1368581C16
:1029600010601970C8B25DF8044B7047F8B50646A0
:102970000F461446D518AC4201D1002007E03A4674
:1029800014F8011B3046FFF7D9FF431CF3D1F8BD03
:102990002DE9F04F9DB00C4617460393064618B13B
:1029A00083690BB9FFF78CFE7C4B9C4257D174684E
:1029B000A38918075DD52369002B5AD000230993FA
:1029C00020238DF8293030238DF82A304FF0010B69
:1029D000B846454615F8013B002B55D1B8EB070A20
:1029E0000BD053463A4621463046FFF7BFFF013031
:1029F00000F0C480099B5344099398F80030002BE1
:102A000000F0BC8000234FF0FF320493079305923F
:102A100006938DF853301A93052229786048FDF704
:102A2000E7FB05F10108049B002831D1D90644BF1A
:102A300020228DF853201A0744BF2B228DF85320F3
:102A40002A782A2A2CD0079A00210A20A846013584
:102A500098F80030303B092B6DD971B326E0514B0B
:102A60009C4201D1B468A3E74F4B9C4208BFF46875
:102A70009EE72146304600F0EFFA00289ED04FF046
:102A8000FF301DB0BDE8F08F252BA7D0A846A0E7EA
:102A9000434A801A0BFA00F0184304904546BBE7FE
:102AA000039A111D12680391002A01DB079204E0CA
:102AB000524243F002030792049398F800302E2B01
:102AC00010D198F801302A2B08F1010137D1039B6E
:102AD0001A1D1B680392002BB8BF4FF0FF3308F19B
:102AE00002080593314D98F8001003222846FDF79F
:102AF0007FFB40B14023401B03FA00F0049B0343DB
:102B0000049308F1010898F8001029488DF828105E
:102B1000062208F10107FDF76BFB002834D0254B96
:102B200003BB039B073323F0070308330393099B7D
:102B30004B4409934CE700FB0232012186E7002356
:102B4000059318460A258846013198F80020303A46
:102B5000092A03D9002BC5D00590C3E705FB002047
:102B60000123F0E703AB00932246134B04A9304640
:102B7000AFF30080B0F1FF3F8146D8D1A3895B0657
:102B80003FF57DAF09987CE703AB009322460A4BE3
:102B900004A9304600F088F8ECE700BF983400083C
:102BA000DC340008B834000878340008E234000847
:102BB000E6340008000000006D2900082DE9F04708
:102BC00091461F468A680B69DDF820809342B8BFA2
:102BD0001346C9F8003091F8432006460C4612B15E
:102BE0000133C9F800302368990642BFD9F8003094
:102BF0000233C9F80030256815F0060507D104F145
:102C0000190AE368D9F800209B1A9D4229DB94F841
:102C100043302268003318BF012392062ED404F1FA
:102C2000430239463046C047013021D02368E56869
:102C3000D9F8002003F00603042B08BFAD1AA368DF
:102C400022690CBF25EAE57500259342C4BF9B1A93
:102C5000ED184FF000091A344D451BD10020BDE896
:102C6000F0870123524639463046C047013003D130
:102C70004FF0FF30BDE8F0870135C2E7E1185A1C7C
:102C8000302081F84300224494F8451082F8431024
:102C90000233C4E70123224639463046C04701309B
:102CA000E6D009F10109D7E72DE9F04317460A7E7E
:102CB00085B06E2A984606460C460C9B01F1430EE1
:102CC00000F0BC801AD8632A2ED00AD8002A00F05F
:102CD000C880582A00F08A8004F1420584F8422016
:102CE0002AE0642A01D0692AF6D121681A6811F015
:102CF000800F23D0111D1960136827E0732A00F09C
:102D0000B48008D86F2A2AD0702AE5D10A6842F028
:102D100020020A6003E0752A21D0782ADCD17822CB
:102D200084F845206E4964E01A6801F14205111DDE
:102D30001960136884F842300123A3E011F0400FBA
:102D400002F104011960D7D0B2F90030002B03DA88
:102D50002D225B4284F8432062490A2217E0206852
:102D6000196810F0800F03D0081D18600B6806E08A
:102D700010F0400F01F104001860F7D00B8859499A
:102D80006F2A14BF0A220822002084F843006568D5
:102D9000A560002DC0F29C80206820F00400206017
:102DA000002B3FD1002D40F095807546082A0BD1AD
:102DB0002368DA0708D5236962689A42DEBF3023A8
:102DC00005F8013C05F1FF35AEEB05032361CDF8B5
:102DD00000803B4603AA21463046FFF7EFFE013054
:102DE00055D14FF0FF3005B0BDE8F08381F84520A4
:102DF0003C492268186812F0800F00F104051D603C
:102E000001D0036802E05506FBD50388D00744BF14
:102E100042F0200222601BB9226822F020022260C8
:102E20001022B1E77546B3FBF2F002FB1033CB5C26
:102E300005F8013D03460028F5D1B7E708681A6890
:102E4000496910F0800F04D0101D186013681960D4
:102E500007E010F0400F02F1040018601368F6D08C
:102E60001980002323617546B1E71A68111D1960A6
:102E70001568626800212846FDF7BAF908B1401BC1
:102E8000606063682361002384F843309FE723690F
:102E90002A4639463046C0470130A2D023689B07F6
:102EA00007D5002504F11909E368039A9B1A9D428E
:102EB00005DBE068039B9842B8BF184693E70123FF
:102EC0004A4639463046C04701308AD00135EBE7E3
:102ED000002BA7D10B7884F8423004F1420565E756
:102EE000FE340008ED34000838B5064C00230546D2
:102EF00008462360FFF730FA431C02D1236803B170
:102F00002B6038BDDC00002010B50C46B1F90E1066
:102F100000F04AFA0028ABBF636DA3891B1823F4A5
:102F20008053ACBF6365A38110BD2DE9F0411F46FE
:102F30008B89DB0505460C46164605D50223002283
:102F4000B1F90E1000F0B8F9A389B4F90E1023F40A
:102F50008053A38132463B462846BDE8F04100F04D
:102F600069B810B50C46B1F90E1000F0A5F9431C74
:102F7000A38915BF606523F4805343F48053A38174
:102F800018BFA38110BDB1F90E1000F0D3B8000036
:102F9000F8B50E461446054618B183690BB9FFF71C
:102FA0008FFB214B9C422AD16C68A369A360A38943
:102FB0001A072ED5236963B323692068C01A636991
:102FC000F6B29842374604DB2146284600F04AF91B
:102FD00028BBA368013BA36023685A1C22601E70B3
:102FE00063690130984204D0A389DB0719D50A2E02
:102FF00017D12146284600F035F990B10FE00B4B70
:103000009C4201D1AC68D0E7094B9C4208BFEC68F8
:10301000CBE72146284600F01FF80028CCD04FF01F
:10302000FF373846F8BD00BF98340008B8340008B0
:103030007834000838B5074C05460846114600228A
:1030400022601A46FFF76CF9431C02D1236803B1D2
:103050002B6038BDDC000020324B70B51D68064681
:103060000C4625B1AB6913B92846FFF729FB2E4B57
:103070009C420FD16C68B4F90C309AB215072CD46D
:10308000D00611D40922326043F04003A3814FF0EF
:10309000FF3070BD254B9C4201D1AC68EBE7244B5F
:1030A0009C4208BFEC68E6E7510712D5616B41B15D
:1030B00004F14403994202D03046FFF793FB00230A
:1030C0006363A38923F02403A3810023636023693E
:1030D0002360A38943F00803A38123694BB9A38923
:1030E00003F42073B3F5007F03D02146304600F08F
:1030F00019F9A28912F001030CD00023A3606369BF
:103100005B42A361236953B9B4F90C3013F080001A
:10311000BAD170BD920758BF6369A360F2E700207F
:10312000F7E700BF0C00002098340008B83400080E
:103130007834000838B5064C00230546084623605D
:10314000FFF738F9431C02D1236803B12B6038BD67
:10315000DC0000208A892DE9F041054610070C4665
:103160005AD44B68002B05DC0B6C002B02DC0020D2
:10317000BDE8F081E66A002EF9D0002312F48052F7
:103180002F682B6033D0606DA3895A0705D563681B
:10319000C01A636B0BB1236CC01A00230246E66AA7
:1031A000216A2846B047431CA38906D129681D29F6
:1031B0004BD82B4ACA40D60747D500226260D904B3
:1031C0002269226004D5421C01D12B6803B96065D5
:1031D000616B2F600029CAD004F14403994202D0E8
:1031E0002846FFF7FFFA00206063BDE8F081216AFE
:1031F00001232846B047411CC6D12B68002BC3D001
:103200001D2B01D0162B01D12F60B0E7A38943F00D
:103210004003A381BDE8F0810F69002FA7D0930779
:103220000E6808BF4B690F6018BF0023A6EB0708A4
:103230008B60B8F1000F9ADD43463A46216AA66AD0
:103240002846B047002807DCA38943F04003A38148
:103250004FF0FF30BDE8F0810744A8EB0008E8E735
:103260000100402038B50B6905460C46DBB118B1AA
:1032700083690BB9FFF724FA0C4B9C4209D16C68A7
:10328000B4F90C307BB121462846BDE83840FFF741
:1032900061BF074B9C4201D1AC68F1E7054B9C42F2
:1032A00008BFEC68ECE7002038BD00BF9834000888
:1032B000B83400087834000838B5074C054608468D
:1032C0001146002222601A46FFF79BF8431C02D1E8
:1032D000236803B12B6038BDDC00002070B50E46BA
:1032E000B1F90E10002990B014461D4607DA0023EC
:1032F0002B60B3891A0610D44FF480630EE001AA44
:1033000000F064F80028F2DB029A02F47042A2F5A1
:1033100000535A425A412A60EEE7402300202360BE
:1033200010B070BD8B8973B59D0706460C4607D556
:1033300004F14703236023610123636102B070BD80
:1033400001AB6A46FFF7CAFF009905463046FFF712
:1033500097FA48B9B4F90C309A05EFD423F0030377
:1033600043F00203A381E3E70D4BB362A38920601E
:1033700043F08003A381009B6361019B20615BB1EB
:10338000B4F90E10304600F033F828B1A38923F0C9
:10339000030343F00103A381A3891D43A581CDE766
:1033A000412600087047704738B5074C0546084667
:1033B0001146002222601A46FFF730F8431C02D162
:1033C000236803B12B6038BDDC00002038B5074C02
:1033D00000230546084611462360FEF7F7FF431C0D
:1033E00002D1236803B12B6038BD00BFDC00002090
:1033F00038B5064C0023054608462360FEF7F6FF65
:10340000431C02D1236803B12B6038BDDC000020CF
:10341000F8B500BFF8BC08BC9E467047F8B500BFC1
:08342000F8BC08BC9E46704791
:103428005072696E746620496D706C656D656E7456
:1034380065640A0D000000002E2E5C5372635C6DFB
:1034480061696E2E630000002E2E5C5372635C75FA
:10345800736172742E630000000000000000000019
:103468000102030406070809000000000102030422
:103478000000000000000000000000000000000044
:103488000000000000000000000000000000000034
:103498000000000000000000000000000000000024
:1034A8000000000000000000000000000000000014
:1034B8000000000000000000000000000000000004
:1034C80000000000000000000000000000000000F4
:1034D80010000020232D302B2000686C4C006566FE
:1034E800674546470030313233343536373839414D
:1034F8004243444546003031323334353637383963
:08350800616263646566000066
:08351000B0CDFF7F01000000B7
:04351800D5010008D1
:04351C00B1010008F1
:1035200010000000010000000024F4001000002042
:103530000000000098340008B8340008783400080F
:10354000000000000000000000000000000000007B
:10355000000000000000000000000000000000006B
:10356000000000000000000000000000000000005B
:10357000000000000000000000000000000000004B
:10358000000000000000000000000000000000003B
:040000050800257555
:00000001FF
